{
  "contractName": "GreenFunds",
  "abi": [
    {
      "constant": true,
      "inputs": [],
      "name": "fundCount",
      "outputs": [
        {
          "internalType": "uint256",
          "name": "",
          "type": "uint256"
        }
      ],
      "payable": false,
      "stateMutability": "view",
      "type": "function"
    },
    {
      "constant": true,
      "inputs": [
        {
          "internalType": "uint256",
          "name": "",
          "type": "uint256"
        }
      ],
      "name": "funds",
      "outputs": [
        {
          "internalType": "uint256",
          "name": "identity",
          "type": "uint256"
        },
        {
          "internalType": "string",
          "name": "fundName",
          "type": "string"
        },
        {
          "internalType": "string",
          "name": "fundDetail",
          "type": "string"
        },
        {
          "internalType": "uint256",
          "name": "fundAmount",
          "type": "uint256"
        },
        {
          "internalType": "uint256",
          "name": "remainingAmount",
          "type": "uint256"
        },
        {
          "internalType": "uint256",
          "name": "claimedAmount",
          "type": "uint256"
        },
        {
          "internalType": "address payable",
          "name": "funder",
          "type": "address"
        },
        {
          "internalType": "address payable",
          "name": "organisation",
          "type": "address"
        }
      ],
      "payable": false,
      "stateMutability": "view",
      "type": "function"
    },
    {
      "constant": true,
      "inputs": [
        {
          "internalType": "uint256",
          "name": "",
          "type": "uint256"
        }
      ],
      "name": "requests",
      "outputs": [
        {
          "internalType": "uint256",
          "name": "id",
          "type": "uint256"
        },
        {
          "internalType": "uint256",
          "name": "fundId",
          "type": "uint256"
        },
        {
          "internalType": "string",
          "name": "fundName",
          "type": "string"
        },
        {
          "internalType": "string",
          "name": "requestDetail",
          "type": "string"
        },
        {
          "internalType": "uint256",
          "name": "value",
          "type": "uint256"
        },
        {
          "internalType": "address payable",
          "name": "funder",
          "type": "address"
        },
        {
          "internalType": "address payable",
          "name": "organisation",
          "type": "address"
        },
        {
          "internalType": "uint256",
          "name": "remainingAmount",
          "type": "uint256"
        },
        {
          "internalType": "uint256",
          "name": "claimedAmount",
          "type": "uint256"
        },
        {
          "internalType": "bool",
          "name": "approved",
          "type": "bool"
        }
      ],
      "payable": false,
      "stateMutability": "view",
      "type": "function"
    },
    {
      "constant": true,
      "inputs": [],
      "name": "requestsCount",
      "outputs": [
        {
          "internalType": "uint256",
          "name": "",
          "type": "uint256"
        }
      ],
      "payable": false,
      "stateMutability": "view",
      "type": "function"
    },
    {
      "constant": false,
      "inputs": [
        {
          "internalType": "string",
          "name": "name",
          "type": "string"
        },
        {
          "internalType": "string",
          "name": "detail",
          "type": "string"
        }
      ],
      "name": "newFund",
      "outputs": [],
      "payable": true,
      "stateMutability": "payable",
      "type": "function"
    },
    {
      "constant": false,
      "inputs": [
        {
          "internalType": "uint256",
          "name": "_id",
          "type": "uint256"
        },
        {
          "internalType": "string",
          "name": "detail",
          "type": "string"
        },
        {
          "internalType": "uint256",
          "name": "amount",
          "type": "uint256"
        }
      ],
      "name": "fundRequest",
      "outputs": [],
      "payable": true,
      "stateMutability": "payable",
      "type": "function"
    },
    {
      "constant": false,
      "inputs": [
        {
          "internalType": "uint256",
          "name": "_id",
          "type": "uint256"
        },
        {
          "internalType": "uint256",
          "name": "reqid",
          "type": "uint256"
        }
      ],
      "name": "approveRequest",
      "outputs": [],
      "payable": true,
      "stateMutability": "payable",
      "type": "function"
    },
    {
      "constant": false,
      "inputs": [
        {
          "internalType": "uint256",
          "name": "_id",
          "type": "uint256"
        },
        {
          "internalType": "uint256",
          "name": "reqid",
          "type": "uint256"
        }
      ],
      "name": "declineRequest",
      "outputs": [],
      "payable": true,
      "stateMutability": "payable",
      "type": "function"
    }
  ],
  "bytecode": "0x608060405260008055600060015534801561001957600080fd5b5061121c806100296000396000f3fe60806040526004361061007b5760003560e01c806381d12c581161004e57806381d12c58146103d7578063accbeb681461058b578063b4ce09ee146105c3578063fbfa4b7f146106925761007b565b80632c0a90a9146100805780633f936ff5146100b8578063727521a6146100e35780637b8e889514610235575b600080fd5b6100b66004803603604081101561009657600080fd5b8101908080359060200190929190803590602001909291905050506106bd565b005b3480156100c457600080fd5b506100cd6108cf565b6040518082815260200191505060405180910390f35b610233600480360360408110156100f957600080fd5b810190808035906020019064010000000081111561011657600080fd5b82018360208201111561012857600080fd5b8035906020019184600183028401116401000000008311171561014a57600080fd5b91908080601f016020809104026020016040519081016040528093929190818152602001838380828437600081840152601f19601f820116905080830192505050505050509192919290803590602001906401000000008111156101ad57600080fd5b8201836020820111156101bf57600080fd5b803590602001918460018302840111640100000000831117156101e157600080fd5b91908080601f016020809104026020016040519081016040528093929190818152602001838380828437600081840152601f19601f8201169050808301925050505050505091929192905050506108d5565b005b34801561024157600080fd5b5061026e6004803603602081101561025857600080fd5b810190808035906020019092919050505061099f565b6040518089815260200180602001806020018881526020018781526020018681526020018573ffffffffffffffffffffffffffffffffffffffff1673ffffffffffffffffffffffffffffffffffffffff1681526020018473ffffffffffffffffffffffffffffffffffffffff1673ffffffffffffffffffffffffffffffffffffffff16815260200183810383528a818151815260200191508051906020019080838360005b8381101561032e578082015181840152602081019050610313565b50505050905090810190601f16801561035b5780820380516001836020036101000a031916815260200191505b50838103825289818151815260200191508051906020019080838360005b83811015610394578082015181840152602081019050610379565b50505050905090810190601f1680156103c15780820380516001836020036101000a031916815260200191505b509a505050505050505050505060405180910390f35b3480156103e357600080fd5b50610410600480360360208110156103fa57600080fd5b8101908080359060200190929190505050610b57565b604051808b81526020018a815260200180602001806020018981526020018873ffffffffffffffffffffffffffffffffffffffff1673ffffffffffffffffffffffffffffffffffffffff1681526020018773ffffffffffffffffffffffffffffffffffffffff1673ffffffffffffffffffffffffffffffffffffffff1681526020018681526020018581526020018415151515815260200183810383528b818151815260200191508051906020019080838360005b838110156104e05780820151818401526020810190506104c5565b50505050905090810190601f16801561050d5780820380516001836020036101000a031916815260200191505b5083810382528a818151815260200191508051906020019080838360005b8381101561054657808201518184015260208101905061052b565b50505050905090810190601f1680156105735780820380516001836020036101000a031916815260200191505b509c5050505050505050505050505060405180910390f35b6105c1600480360360408110156105a157600080fd5b810190808035906020019092919080359060200190929190505050610d28565b005b610690600480360360608110156105d957600080fd5b81019080803590602001909291908035906020019064010000000081111561060057600080fd5b82018360208201111561061257600080fd5b8035906020019184600183028401116401000000008311171561063457600080fd5b91908080601f016020809104026020016040519081016040528093929190818152602001838380828437600081840152601f19601f82011690508083019250505050505050919291929080359060200190929190505050610efe565b005b34801561069e57600080fd5b506106a761106d565b6040518082815260200191505060405180910390f35b60006002600084815260200190815260200160002090508060060160009054906101000a900473ffffffffffffffffffffffffffffffffffffffff1673ffffffffffffffffffffffffffffffffffffffff163373ffffffffffffffffffffffffffffffffffffffff1614610799576040517f08c379a00000000000000000000000000000000000000000000000000000000081526004018080602001828103825260168152602001807f596f7520617265206e6f7420617574686f72697365640000000000000000000081525060200191505060405180910390fd5b600060036000848152602001908152602001600020905060018160090160006101000a81548160ff02191690831515021790555080600401548260040154038260040181905550806004015482600501540182600501819055508060060160009054906101000a900473ffffffffffffffffffffffffffffffffffffffff168260070160006101000a81548173ffffffffffffffffffffffffffffffffffffffff021916908373ffffffffffffffffffffffffffffffffffffffff1602179055508060060160009054906101000a900473ffffffffffffffffffffffffffffffffffffffff1673ffffffffffffffffffffffffffffffffffffffff166108fc82600401549081150290604051600060405180830381858888f193505050501580156108c8573d6000803e3d6000fd5b5050505050565b60005481565b600060026000805481526020019081526020016000209050600054816000018190555082816001019080519060200190610910929190611073565b5081816002019080519060200190610929929190611073565b50338160060160006101000a81548173ffffffffffffffffffffffffffffffffffffffff021916908373ffffffffffffffffffffffffffffffffffffffff160217905550348160030181905550348160040181905550600081600501819055506000808154809291906001019190505550505050565b6002602052806000526040600020600091509050806000015490806001018054600181600116156101000203166002900480601f016020809104026020016040519081016040528092919081815260200182805460018160011615610100020316600290048015610a515780601f10610a2657610100808354040283529160200191610a51565b820191906000526020600020905b815481529060010190602001808311610a3457829003601f168201915b505050505090806002018054600181600116156101000203166002900480601f016020809104026020016040519081016040528092919081815260200182805460018160011615610100020316600290048015610aef5780601f10610ac457610100808354040283529160200191610aef565b820191906000526020600020905b815481529060010190602001808311610ad257829003601f168201915b5050505050908060030154908060040154908060050154908060060160009054906101000a900473ffffffffffffffffffffffffffffffffffffffff16908060070160009054906101000a900473ffffffffffffffffffffffffffffffffffffffff16905088565b6003602052806000526040600020600091509050806000015490806001015490806002018054600181600116156101000203166002900480601f016020809104026020016040519081016040528092919081815260200182805460018160011615610100020316600290048015610c0f5780601f10610be457610100808354040283529160200191610c0f565b820191906000526020600020905b815481529060010190602001808311610bf257829003601f168201915b505050505090806003018054600181600116156101000203166002900480601f016020809104026020016040519081016040528092919081815260200182805460018160011615610100020316600290048015610cad5780601f10610c8257610100808354040283529160200191610cad565b820191906000526020600020905b815481529060010190602001808311610c9057829003601f168201915b5050505050908060040154908060050160009054906101000a900473ffffffffffffffffffffffffffffffffffffffff16908060060160009054906101000a900473ffffffffffffffffffffffffffffffffffffffff16908060070154908060080154908060090160009054906101000a900460ff1690508a565b60006002600084815260200190815260200160002090508060060160009054906101000a900473ffffffffffffffffffffffffffffffffffffffff1673ffffffffffffffffffffffffffffffffffffffff163373ffffffffffffffffffffffffffffffffffffffff1614610e04576040517f08c379a00000000000000000000000000000000000000000000000000000000081526004018080602001828103825260168152602001807f596f7520617265206e6f7420617574686f72697365640000000000000000000081525060200191505060405180910390fd5b600060036000848152602001908152602001600020905060008160090160006101000a81548160ff021916908315150217905550600360008481526020019081526020016000206000808201600090556001820160009055600282016000610e6c91906110f3565b600382016000610e7c91906110f3565b60048201600090556005820160006101000a81549073ffffffffffffffffffffffffffffffffffffffff02191690556006820160006101000a81549073ffffffffffffffffffffffffffffffffffffffff0219169055600782016000905560088201600090556009820160006101000a81549060ff0219169055505050505050565b600060026000858152602001908152602001600020905060006003600060015481526020019081526020016000209050600154816000018190555082816004018190555081600101816002019080546001816001161561010002031660029004610f6992919061113b565b5083816003019080519060200190610f82929190611073565b508160060160009054906101000a900473ffffffffffffffffffffffffffffffffffffffff168160050160006101000a81548173ffffffffffffffffffffffffffffffffffffffff021916908373ffffffffffffffffffffffffffffffffffffffff16021790555081600001548160010181905550338160060160006101000a81548173ffffffffffffffffffffffffffffffffffffffff021916908373ffffffffffffffffffffffffffffffffffffffff16021790555081600401548160070181905550816005015481600801819055506001600081548092919060010191905055505050505050565b60015481565b828054600181600116156101000203166002900490600052602060002090601f016020900481019282601f106110b457805160ff19168380011785556110e2565b828001600101855582156110e2579182015b828111156110e15782518255916020019190600101906110c6565b5b5090506110ef91906111c2565b5090565b50805460018160011615610100020316600290046000825580601f106111195750611138565b601f01602090049060005260206000209081019061113791906111c2565b5b50565b828054600181600116156101000203166002900490600052602060002090601f016020900481019282601f1061117457805485556111b1565b828001600101855582156111b157600052602060002091601f016020900482015b828111156111b0578254825591600101919060010190611195565b5b5090506111be91906111c2565b5090565b6111e491905b808211156111e05760008160009055506001016111c8565b5090565b9056fea265627a7a72315820d3440705017ca049f69212d82c91c188137aabc730b32d7e66eec5a000af928564736f6c63430005100032",
  "source": "// Version of Solidity\npragma solidity >=0.5.0;\n\n// GreenFunds Contract\ncontract GreenFunds {\n\n    uint public fundCount = 0; // Track the total number of funds \n    uint public requestsCount = 0; // Track the total number of requests \n    mapping(uint => Fund) public funds; // Mapping of fund id to fund struct\n    mapping(uint => Request) public requests; // Mapping of request id to request struct\n\n    using SafeMath for int256;\n    \n    // Fund Structure\n    struct Fund {\n        uint identity; // Unique identifier\n        string fundName; // Fund display name\n        string fundDetail; // Fund description \n        uint fundAmount; // Needed amount\n        uint remainingAmount; // Remaining value in fund\n        uint claimedAmount; // Claimed value of the fund\n        address payable funder; // Creator's address\n        address payable organisation;\n    }\n    \n    // Request Structure\n    struct Request {\n        uint id; // Unique identifies\n        uint fundId; // Unique identifier of the fund\n        string fundName; // Fund details\n        string requestDetail; // Request details\n        uint value; // Value of crypto requested\n        address payable funder; // Address of loanee\n        address payable organisation; // Address of requester\n        uint remainingAmount; // Remaining value in fund at time of request\n        uint claimedAmount; // Claimed value of the fund at time of request\n        bool approved; // Approval Status\n    }\n    \n    // Create a new fund\n    function newFund(string memory name, string memory detail) public payable {\n        Fund storage c = funds[fundCount]; // New fund object\n        \n        c.identity = fundCount; // Set identifier\n        c.fundName = name; // Set fund name\n        c.fundDetail = detail; // Set fund details\n        c.funder = msg.sender; // Set creator's address\n        c.fundAmount = msg.value; // Set fund total value\n        c.remainingAmount = msg.value; // Remaining Amount in Fund\n        c.claimedAmount = 0; // Claimed amount in the fund\n        fundCount++; // Increment identifier for subsequent creation\n    }\n    \n    // Send Fund Request\n    function fundRequest(uint _id, string memory detail, uint amount) public payable {\n        Fund storage l = funds[_id]; // Fetch associated fund\n        \n        Request storage r = requests[requestsCount]; // Fetch associated request\n        r.id = requestsCount; // Set identifier\n        r.value = amount; // Set value\n        r.fundName = l.fundName; // Set name\n        r.requestDetail = detail;\n        r.funder = l.funder; // Set loanee\n        r.fundId = l.identity; // Set fund identifier\n        r.organisation = msg.sender; // Set organisation's address\n        r.remainingAmount = l.remainingAmount;\n        r.claimedAmount = l.claimedAmount;\n        requestsCount++; // Increment request count\n    }\n    \n    // Approve request\n    function approveRequest(uint _id, uint reqid) public payable {\n        Fund storage l = funds[_id]; // Fetch associated fund\n        require(msg.sender == l.funder, 'You are not authorised'); // Check authorisation\n\n        Request storage r = requests[reqid]; // Fetch associated request\n        r.approved = true; // Set approval status to true\n        \n        l.remainingAmount = l.remainingAmount - r.value;\n        l.claimedAmount = l.claimedAmount + r.value;\n\n        l.organisation = r.organisation;\n        \n        r.organisation.transfer(r.value); // Send funds\n    }\n    \n    // Decline request\n    function declineRequest(uint _id, uint reqid) public payable {\n        Fund storage l = funds[_id]; // Fetch associated fund\n        require(msg.sender == l.funder, 'You are not authorised'); // Check authorisation\n\n        Request storage r = requests[reqid]; // Fetch associated request\n        r.approved = false; // Set approval status to false\n        delete requests[reqid]; // Delete request\n    }\n    \n}\n\nlibrary SafeMath {\n    /**\n     * @dev Returns the addition of two unsigned integers, reverting on\n     * overflow.\n     *\n     * Counterpart to Solidity's `+` operator.\n     *\n     * Requirements:\n     * - Addition cannot overflow.\n     */\n    function add(uint256 a, uint256 b) internal pure returns (uint256) {\n        uint256 c = a + b;\n        require(c >= a, \"SafeMath: addition overflow\");\n\n        return c;\n    }\n\n    /**\n     * @dev Returns the subtraction of two unsigned integers, reverting on\n     * overflow (when the result is negative).\n     *\n     * Counterpart to Solidity's `-` operator.\n     *\n     * Requirements:\n     * - Subtraction cannot overflow.\n     */\n    function sub(uint256 a, uint256 b) internal pure returns (uint256) {\n        return sub(a, b, \"SafeMath: subtraction overflow\");\n    }\n\n    /**\n     * @dev Returns the subtraction of two unsigned integers, reverting with custom message on\n     * overflow (when the result is negative).\n     *\n     * Counterpart to Solidity's `-` operator.\n     *\n     * Requirements:\n     * - Subtraction cannot overflow.\n     */\n    function sub(uint256 a, uint256 b, string memory errorMessage) internal pure returns (uint256) {\n        require(b <= a, errorMessage);\n        uint256 c = a - b;\n\n        return c;\n    }\n\n    /**\n     * @dev Returns the multiplication of two unsigned integers, reverting on\n     * overflow.\n     *\n     * Counterpart to Solidity's `*` operator.\n     *\n     * Requirements:\n     * - Multiplication cannot overflow.\n     */\n    function mul(uint256 a, uint256 b) internal pure returns (uint256) {\n        // Gas optimization: this is cheaper than requiring 'a' not being zero, but the\n        // benefit is lost if 'b' is also tested.\n        // See: https://github.com/OpenZeppelin/openzeppelin-contracts/pull/522\n        if (a == 0) {\n            return 0;\n        }\n\n        uint256 c = a * b;\n        require(c / a == b, \"SafeMath: multiplication overflow\");\n\n        return c;\n    }\n\n    /**\n     * @dev Returns the integer division of two unsigned integers. Reverts on\n     * division by zero. The result is rounded towards zero.\n     *\n     * Counterpart to Solidity's `/` operator. Note: this function uses a\n     * `revert` opcode (which leaves remaining gas untouched) while Solidity\n     * uses an invalid opcode to revert (consuming all remaining gas).\n     *\n     * Requirements:\n     * - The divisor cannot be zero.\n     */\n    function div(uint256 a, uint256 b) internal pure returns (uint256) {\n        return div(a, b, \"SafeMath: division by zero\");\n    }\n\n    /**\n     * @dev Returns the integer division of two unsigned integers. Reverts with custom message on\n     * division by zero. The result is rounded towards zero.\n     *\n     * Counterpart to Solidity's `/` operator. Note: this function uses a\n     * `revert` opcode (which leaves remaining gas untouched) while Solidity\n     * uses an invalid opcode to revert (consuming all remaining gas).\n     *\n     * Requirements:\n     * - The divisor cannot be zero.\n     */\n    function div(uint256 a, uint256 b, string memory errorMessage) internal pure returns (uint256) {\n        // Solidity only automatically asserts when dividing by 0\n        require(b > 0, errorMessage);\n        uint256 c = a / b;\n        // assert(a == b * c + a % b); // There is no case in which this doesn't hold\n\n        return c;\n    }\n\n    /**\n     * @dev Returns the remainder of dividing two unsigned integers. (unsigned integer modulo),\n     * Reverts when dividing by zero.\n     *\n     * Counterpart to Solidity's `%` operator. This function uses a `revert`\n     * opcode (which leaves remaining gas untouched) while Solidity uses an\n     * invalid opcode to revert (consuming all remaining gas).\n     *\n     * Requirements:\n     * - The divisor cannot be zero.\n     */\n    function mod(uint256 a, uint256 b) internal pure returns (uint256) {\n        return mod(a, b, \"SafeMath: modulo by zero\");\n    }\n\n    /**\n     * @dev Returns the remainder of dividing two unsigned integers. (unsigned integer modulo),\n     * Reverts with custom message when dividing by zero.\n     *\n     * Counterpart to Solidity's `%` operator. This function uses a `revert`\n     * opcode (which leaves remaining gas untouched) while Solidity uses an\n     * invalid opcode to revert (consuming all remaining gas).\n     *\n     * Requirements:\n     * - The divisor cannot be zero.\n     */\n    function mod(uint256 a, uint256 b, string memory errorMessage) internal pure returns (uint256) {\n        require(b != 0, errorMessage);\n        return a % b;\n    }\n}",
  "sourcePath": "/Users/skhiearth/Desktop/GreenFunds/GreenFunds/src/contracts/GreenFunds.sol",
  "compiler": {
    "name": "solc",
    "version": "0.5.16+commit.9c3226ce.Emscripten.clang"
  },
  "schemaVersion": "3.3.4",
  "updatedAt": "2021-04-30T18:34:15.958Z",
  "networkType": "ethereum",
  "devdoc": {
    "methods": {}
  },
  "userdoc": {
    "methods": {}
  }
}